{
  "contractName": "ETHPool",
  "abi": [
    {
      "anonymous": false,
      "inputs": [
        {
          "indexed": false,
          "internalType": "address",
          "name": "user",
          "type": "address"
        },
        {
          "indexed": false,
          "internalType": "uint256",
          "name": "amount",
          "type": "uint256"
        },
        {
          "indexed": false,
          "internalType": "uint256",
          "name": "total",
          "type": "uint256"
        }
      ],
      "name": "depositAdded",
      "type": "event"
    },
    {
      "anonymous": false,
      "inputs": [
        {
          "indexed": false,
          "internalType": "address",
          "name": "user",
          "type": "address"
        },
        {
          "indexed": false,
          "internalType": "uint256",
          "name": "amount",
          "type": "uint256"
        },
        {
          "indexed": false,
          "internalType": "uint256",
          "name": "total",
          "type": "uint256"
        }
      ],
      "name": "rewardAdded",
      "type": "event"
    },
    {
      "anonymous": false,
      "inputs": [
        {
          "indexed": false,
          "internalType": "uint256",
          "name": "amount",
          "type": "uint256"
        }
      ],
      "name": "withdrawal",
      "type": "event"
    },
    {
      "inputs": [],
      "name": "owner",
      "outputs": [
        {
          "internalType": "address",
          "name": "",
          "type": "address"
        }
      ],
      "stateMutability": "view",
      "type": "function",
      "constant": true
    },
    {
      "inputs": [
        {
          "internalType": "address",
          "name": "_newOwner",
          "type": "address"
        }
      ],
      "name": "changeOwner",
      "outputs": [],
      "stateMutability": "nonpayable",
      "type": "function"
    },
    {
      "inputs": [],
      "name": "getDepositsTotal",
      "outputs": [
        {
          "internalType": "uint256",
          "name": "",
          "type": "uint256"
        }
      ],
      "stateMutability": "view",
      "type": "function",
      "constant": true
    },
    {
      "inputs": [],
      "name": "addDeposit",
      "outputs": [],
      "stateMutability": "payable",
      "type": "function",
      "payable": true
    },
    {
      "inputs": [],
      "name": "addReward",
      "outputs": [],
      "stateMutability": "payable",
      "type": "function",
      "payable": true
    },
    {
      "inputs": [],
      "name": "withdraw",
      "outputs": [],
      "stateMutability": "nonpayable",
      "type": "function"
    },
    {
      "inputs": [],
      "name": "getContractBalance",
      "outputs": [
        {
          "internalType": "uint256",
          "name": "",
          "type": "uint256"
        }
      ],
      "stateMutability": "view",
      "type": "function",
      "constant": true
    },
    {
      "inputs": [],
      "name": "getBalance",
      "outputs": [
        {
          "internalType": "uint256",
          "name": "",
          "type": "uint256"
        }
      ],
      "stateMutability": "view",
      "type": "function",
      "constant": true
    }
  ],
  "bytecode": "0x6080604052336000806101000a81548173ffffffffffffffffffffffffffffffffffffffff021916908373ffffffffffffffffffffffffffffffffffffffff160217905550600060015534801561005557600080fd5b50611904806100656000396000f3fe60806040526004361061007b5760003560e01c80638da5cb5b1161004e5780638da5cb5b146100f7578063a6f9dae114610122578063ca690add1461014b578063e59a58ee146101765761007b565b806312065fe0146100805780633ccfd60b146100ab5780634a58db19146100c25780636f9fb98a146100cc575b600080fd5b34801561008c57600080fd5b50610095610180565b6040516100a2919061149f565b60405180910390f35b3480156100b757600080fd5b506100c06101ca565b005b6100ca610559565b005b3480156100d857600080fd5b506100e161092b565b6040516100ee919061149f565b60405180910390f35b34801561010357600080fd5b5061010c610933565b604051610119919061130d565b60405180910390f35b34801561012e57600080fd5b5061014960048036038101906101449190611130565b610957565b005b34801561015757600080fd5b50610160610a2a565b60405161016d919061149f565b60405180910390f35b61017e610a34565b005b6000600360003373ffffffffffffffffffffffffffffffffffffffff1673ffffffffffffffffffffffffffffffffffffffff16815260200190815260200160002060010154905090565b600073ffffffffffffffffffffffffffffffffffffffff163373ffffffffffffffffffffffffffffffffffffffff16141561023a576040517f08c379a00000000000000000000000000000000000000000000000000000000081526004016102319061137f565b60405180910390fd5b3373ffffffffffffffffffffffffffffffffffffffff1660008054906101000a900473ffffffffffffffffffffffffffffffffffffffff1673ffffffffffffffffffffffffffffffffffffffff1614156102c9576040517f08c379a00000000000000000000000000000000000000000000000000000000081526004016102c0906113df565b60405180910390fd5b6000600360003373ffffffffffffffffffffffffffffffffffffffff1673ffffffffffffffffffffffffffffffffffffffff168152602001908152602001600020600101541161034e576040517f08c379a00000000000000000000000000000000000000000000000000000000081526004016103459061139f565b60405180910390fd5b600360003373ffffffffffffffffffffffffffffffffffffffff1673ffffffffffffffffffffffffffffffffffffffff1681526020019081526020016000206001015461039961092b565b10156103da576040517f08c379a00000000000000000000000000000000000000000000000000000000081526004016103d19061145f565b60405180910390fd5b6000600360003373ffffffffffffffffffffffffffffffffffffffff1673ffffffffffffffffffffffffffffffffffffffff1681526020019081526020016000206001015490506000600360003373ffffffffffffffffffffffffffffffffffffffff1673ffffffffffffffffffffffffffffffffffffffff1681526020019081526020016000206001018190555060003373ffffffffffffffffffffffffffffffffffffffff168260405161048f906112f8565b60006040518083038185875af1925050503d80600081146104cc576040519150601f19603f3d011682016040523d82523d6000602084013e6104d1565b606091505b5050905080610515576040517f08c379a000000000000000000000000000000000000000000000000000000000815260040161050c906113bf565b60405180910390fd5b61051e33610e3a565b7f835fc6ca5dae55676aabdbeca3b41bfeefe258e3b1c34a04a3f52ba2a4bdfa408260405161054d919061149f565b60405180910390a15050565b600073ffffffffffffffffffffffffffffffffffffffff163373ffffffffffffffffffffffffffffffffffffffff1614156105c9576040517f08c379a00000000000000000000000000000000000000000000000000000000081526004016105c09061137f565b60405180910390fd5b3373ffffffffffffffffffffffffffffffffffffffff1660008054906101000a900473ffffffffffffffffffffffffffffffffffffffff1673ffffffffffffffffffffffffffffffffffffffff161415610658576040517f08c379a000000000000000000000000000000000000000000000000000000000815260040161064f9061135f565b60405180910390fd5b6000341161069b576040517f08c379a00000000000000000000000000000000000000000000000000000000081526004016106929061141f565b60405180910390fd5b600360003373ffffffffffffffffffffffffffffffffffffffff1673ffffffffffffffffffffffffffffffffffffffff16815260200190815260200160002060000160009054906101000a900460ff166107f6576002339080600181540180825580915050600190039060005260206000200160009091909190916101000a81548173ffffffffffffffffffffffffffffffffffffffff021916908373ffffffffffffffffffffffffffffffffffffffff1602179055506001600360003373ffffffffffffffffffffffffffffffffffffffff1673ffffffffffffffffffffffffffffffffffffffff16815260200190815260200160002060000160006101000a81548160ff0219169083151502179055506000600360003373ffffffffffffffffffffffffffffffffffffffff1673ffffffffffffffffffffffffffffffffffffffff168152602001908152602001600020600101819055505b61084b34600360003373ffffffffffffffffffffffffffffffffffffffff1673ffffffffffffffffffffffffffffffffffffffff168152602001908152602001600020600101546110d990919063ffffffff16565b600360003373ffffffffffffffffffffffffffffffffffffffff1673ffffffffffffffffffffffffffffffffffffffff168152602001908152602001600020600101819055506108a6346001546110d990919063ffffffff16565b6001819055507fed475e33a639224790771f41aad7bed400dc8b26db06f3b439d03248774697363334600360003373ffffffffffffffffffffffffffffffffffffffff1673ffffffffffffffffffffffffffffffffffffffff1681526020019081526020016000206001015460405161092193929190611328565b60405180910390a1565b600047905090565b60008054906101000a900473ffffffffffffffffffffffffffffffffffffffff1681565b60008054906101000a900473ffffffffffffffffffffffffffffffffffffffff168073ffffffffffffffffffffffffffffffffffffffff163373ffffffffffffffffffffffffffffffffffffffff16146109e6576040517f08c379a00000000000000000000000000000000000000000000000000000000081526004016109dd9061147f565b60405180910390fd5b816000806101000a81548173ffffffffffffffffffffffffffffffffffffffff021916908373ffffffffffffffffffffffffffffffffffffffff1602179055505050565b6000600154905090565b60008054906101000a900473ffffffffffffffffffffffffffffffffffffffff168073ffffffffffffffffffffffffffffffffffffffff163373ffffffffffffffffffffffffffffffffffffffff1614610ac3576040517f08c379a0000000000000000000000000000000000000000000000000000000008152600401610aba9061147f565b60405180910390fd5b600073ffffffffffffffffffffffffffffffffffffffff163373ffffffffffffffffffffffffffffffffffffffff161415610b33576040517f08c379a0000000000000000000000000000000000000000000000000000000008152600401610b2a9061137f565b60405180910390fd5b60003411610b76576040517f08c379a0000000000000000000000000000000000000000000000000000000008152600401610b6d9061141f565b60405180910390fd5b60008060028054905090506000811115610dda5760005b81811015610dd857600060028281548110610bd1577f4e487b7100000000000000000000000000000000000000000000000000000000600052603260045260246000fd5b9060005260206000200160009054906101000a900473ffffffffffffffffffffffffffffffffffffffff1690506000600360008373ffffffffffffffffffffffffffffffffffffffff1673ffffffffffffffffffffffffffffffffffffffff1681526020019081526020016000206001015490506000811115610dc357600194506000610c7c600154610c6e6064856110ef90919063ffffffff16565b61110590919063ffffffff16565b90506000610ca66064610c9884346110ef90919063ffffffff16565b61110590919063ffffffff16565b9050610cfd81600360008773ffffffffffffffffffffffffffffffffffffffff1673ffffffffffffffffffffffffffffffffffffffff168152602001908152602001600020600101546110d990919063ffffffff16565b600360008673ffffffffffffffffffffffffffffffffffffffff1673ffffffffffffffffffffffffffffffffffffffff168152602001908152602001600020600101819055507feec0bcdeb488f2baaa2cc39261f7af993bd88649b6355a4efd6ce81d807a01958482600360008873ffffffffffffffffffffffffffffffffffffffff1673ffffffffffffffffffffffffffffffffffffffff16815260200190815260200160002060010154604051610db893929190611328565b60405180910390a150505b50508080610dd090611627565b915050610b8d565b505b81610e1a576040517f08c379a0000000000000000000000000000000000000000000000000000000008152600401610e11906113ff565b60405180910390fd5b610e2f346001546110d990919063ffffffff16565b600181905550505050565b600080600280549050905060005b81811015610f035760028181548110610e8a577f4e487b7100000000000000000000000000000000000000000000000000000000600052603260045260246000fd5b9060005260206000200160009054906101000a900473ffffffffffffffffffffffffffffffffffffffff1673ffffffffffffffffffffffffffffffffffffffff168473ffffffffffffffffffffffffffffffffffffffff161415610ef057809250610f03565b8080610efb90611627565b915050610e48565b50808210610f46576040517f08c379a0000000000000000000000000000000000000000000000000000000008152600401610f3d9061143f565b60405180910390fd5b60008290505b600182610f5991906115b7565b811015611066576002600182610f6f91906114d6565b81548110610fa6577f4e487b7100000000000000000000000000000000000000000000000000000000600052603260045260246000fd5b9060005260206000200160009054906101000a900473ffffffffffffffffffffffffffffffffffffffff166002828154811061100b577f4e487b7100000000000000000000000000000000000000000000000000000000600052603260045260246000fd5b9060005260206000200160006101000a81548173ffffffffffffffffffffffffffffffffffffffff021916908373ffffffffffffffffffffffffffffffffffffffff160217905550808061105e90611627565b915050610f4c565b50600280548061109f577f4e487b7100000000000000000000000000000000000000000000000000000000600052603160045260246000fd5b6001900381819060005260206000200160006101000a81549073ffffffffffffffffffffffffffffffffffffffff02191690559055505050565b600081836110e791906114d6565b905092915050565b600081836110fd919061155d565b905092915050565b60008183611113919061152c565b905092915050565b60008135905061112a816118b7565b92915050565b60006020828403121561114257600080fd5b60006111508482850161111b565b91505092915050565b611162816115eb565b82525050565b6000611175601b836114c5565b9150611180826116ce565b602082019050919050565b6000611198600f836114c5565b91506111a3826116f7565b602082019050919050565b60006111bb6013836114c5565b91506111c682611720565b602082019050919050565b60006111de600f836114c5565b91506111e982611749565b602082019050919050565b6000611201601c836114c5565b915061120c82611772565b602082019050919050565b60006112246046836114c5565b915061122f8261179b565b606082019050919050565b6000611247601a836114c5565b915061125282611810565b602082019050919050565b600061126a6012836114c5565b915061127582611839565b602082019050919050565b600061128d6013836114c5565b915061129882611862565b602082019050919050565b60006112b06000836114ba565b91506112bb8261188b565b600082019050919050565b60006112d36016836114c5565b91506112de8261188e565b602082019050919050565b6112f28161161d565b82525050565b6000611303826112a3565b9150819050919050565b60006020820190506113226000830184611159565b92915050565b600060608201905061133d6000830186611159565b61134a60208301856112e9565b61135760408301846112e9565b949350505050565b6000602082019050818103600083015261137881611168565b9050919050565b600060208201905081810360008301526113988161118b565b9050919050565b600060208201905081810360008301526113b8816111ae565b9050919050565b600060208201905081810360008301526113d8816111d1565b9050919050565b600060208201905081810360008301526113f8816111f4565b9050919050565b6000602082019050818103600083015261141881611217565b9050919050565b600060208201905081810360008301526114388161123a565b9050919050565b600060208201905081810360008301526114588161125d565b9050919050565b6000602082019050818103600083015261147881611280565b9050919050565b60006020820190508181036000830152611498816112c6565b9050919050565b60006020820190506114b460008301846112e9565b92915050565b600081905092915050565b600082825260208201905092915050565b60006114e18261161d565b91506114ec8361161d565b9250827fffffffffffffffffffffffffffffffffffffffffffffffffffffffffffffffff0382111561152157611520611670565b5b828201905092915050565b60006115378261161d565b91506115428361161d565b9250826115525761155161169f565b5b828204905092915050565b60006115688261161d565b91506115738361161d565b9250817fffffffffffffffffffffffffffffffffffffffffffffffffffffffffffffffff04831182151516156115ac576115ab611670565b5b828202905092915050565b60006115c28261161d565b91506115cd8361161d565b9250828210156115e0576115df611670565b5b828203905092915050565b60006115f6826115fd565b9050919050565b600073ffffffffffffffffffffffffffffffffffffffff82169050919050565b6000819050919050565b60006116328261161d565b91507fffffffffffffffffffffffffffffffffffffffffffffffffffffffffffffffff82141561166557611664611670565b5b600182019050919050565b7f4e487b7100000000000000000000000000000000000000000000000000000000600052601160045260246000fd5b7f4e487b7100000000000000000000000000000000000000000000000000000000600052601260045260246000fd5b7f455448506f6f6c205465616d2063616e6e6f74206465706f7369740000000000600082015250565b7f496e76616c696420616464726573730000000000000000000000000000000000600082015250565b7f4e6f7468696e6720746f20776974686472617700000000000000000000000000600082015250565b7f5769746864726177206661696c65640000000000000000000000000000000000600082015250565b7f455448506f6f6c205465616d2063616e6e6f7420776974686472617700000000600082015250565b7f43616e6e6f742061646420726577617264732e2057696c6c206c6f737420667560008201527f6e642e204e6f626f64792077696c6c2062652061626c6520746f20776974686460208201527f7261772069740000000000000000000000000000000000000000000000000000604082015250565b7f416d6f756e742076616c7565206973206e6f742076616c696421000000000000600082015250565b7f696e646578206f7574206f6620626f756e640000000000000000000000000000600082015250565b7f4e6f7420656e6f7567746820666f756e64732100000000000000000000000000600082015250565b50565b7f53656e646572206e6f7420617574686f72697a65642e00000000000000000000600082015250565b6118c0816115eb565b81146118cb57600080fd5b5056fea2646970667358221220dcaa8b93d6954feadfe3cce9405ae867b8947915aeee81b92ee91c0f72f5fa9a64736f6c63430008040033",
  "immutableReferences": {},
  "source": "// SPDX-License-Identifier: MIT\npragma solidity >=0.4.22 <0.9.0;\n\n// https://github.com/OpenZeppelin/openzeppelin-contracts/blob/master/contracts/utils/math/SafeMath.sol\n/**\n * @dev Wrappers over Solidity's arithmetic operations.\n *\n * NOTE: `SafeMath` is generally not needed starting with Solidity 0.8, since the compiler\n * now has built in overflow checking.\n */\nlibrary SafeMath {\n    /**\n     * @dev Returns the addition of two unsigned integers, with an overflow flag.\n     *\n     * _Available since v3.4._\n     */\n    function tryAdd(uint256 a, uint256 b) internal pure returns (bool, uint256) {\n        unchecked {\n            uint256 c = a + b;\n            if (c < a) return (false, 0);\n            return (true, c);\n        }\n    }\n\n    /**\n     * @dev Returns the substraction of two unsigned integers, with an overflow flag.\n     *\n     * _Available since v3.4._\n     */\n    function trySub(uint256 a, uint256 b) internal pure returns (bool, uint256) {\n        unchecked {\n            if (b > a) return (false, 0);\n            return (true, a - b);\n        }\n    }\n\n    /**\n     * @dev Returns the multiplication of two unsigned integers, with an overflow flag.\n     *\n     * _Available since v3.4._\n     */\n    function tryMul(uint256 a, uint256 b) internal pure returns (bool, uint256) {\n        unchecked {\n            // Gas optimization: this is cheaper than requiring 'a' not being zero, but the\n            // benefit is lost if 'b' is also tested.\n            // See: https://github.com/OpenZeppelin/openzeppelin-contracts/pull/522\n            if (a == 0) return (true, 0);\n            uint256 c = a * b;\n            if (c / a != b) return (false, 0);\n            return (true, c);\n        }\n    }\n\n    /**\n     * @dev Returns the division of two unsigned integers, with a division by zero flag.\n     *\n     * _Available since v3.4._\n     */\n    function tryDiv(uint256 a, uint256 b) internal pure returns (bool, uint256) {\n        unchecked {\n            if (b == 0) return (false, 0);\n            return (true, a / b);\n        }\n    }\n\n    /**\n     * @dev Returns the remainder of dividing two unsigned integers, with a division by zero flag.\n     *\n     * _Available since v3.4._\n     */\n    function tryMod(uint256 a, uint256 b) internal pure returns (bool, uint256) {\n        unchecked {\n            if (b == 0) return (false, 0);\n            return (true, a % b);\n        }\n    }\n\n    /**\n     * @dev Returns the addition of two unsigned integers, reverting on\n     * overflow.\n     *\n     * Counterpart to Solidity's `+` operator.\n     *\n     * Requirements:\n     *\n     * - Addition cannot overflow.\n     */\n    function add(uint256 a, uint256 b) internal pure returns (uint256) {\n        return a + b;\n    }\n\n    /**\n     * @dev Returns the subtraction of two unsigned integers, reverting on\n     * overflow (when the result is negative).\n     *\n     * Counterpart to Solidity's `-` operator.\n     *\n     * Requirements:\n     *\n     * - Subtraction cannot overflow.\n     */\n    function sub(uint256 a, uint256 b) internal pure returns (uint256) {\n        return a - b;\n    }\n\n    /**\n     * @dev Returns the multiplication of two unsigned integers, reverting on\n     * overflow.\n     *\n     * Counterpart to Solidity's `*` operator.\n     *\n     * Requirements:\n     *\n     * - Multiplication cannot overflow.\n     */\n    function mul(uint256 a, uint256 b) internal pure returns (uint256) {\n        return a * b;\n    }\n\n    /**\n     * @dev Returns the integer division of two unsigned integers, reverting on\n     * division by zero. The result is rounded towards zero.\n     *\n     * Counterpart to Solidity's `/` operator.\n     *\n     * Requirements:\n     *\n     * - The divisor cannot be zero.\n     */\n    function div(uint256 a, uint256 b) internal pure returns (uint256) {\n        return a / b;\n    }\n\n    /**\n     * @dev Returns the remainder of dividing two unsigned integers. (unsigned integer modulo),\n     * reverting when dividing by zero.\n     *\n     * Counterpart to Solidity's `%` operator. This function uses a `revert`\n     * opcode (which leaves remaining gas untouched) while Solidity uses an\n     * invalid opcode to revert (consuming all remaining gas).\n     *\n     * Requirements:\n     *\n     * - The divisor cannot be zero.\n     */\n    function mod(uint256 a, uint256 b) internal pure returns (uint256) {\n        return a % b;\n    }\n\n    /**\n     * @dev Returns the subtraction of two unsigned integers, reverting with custom message on\n     * overflow (when the result is negative).\n     *\n     * CAUTION: This function is deprecated because it requires allocating memory for the error\n     * message unnecessarily. For custom revert reasons use {trySub}.\n     *\n     * Counterpart to Solidity's `-` operator.\n     *\n     * Requirements:\n     *\n     * - Subtraction cannot overflow.\n     */\n    function sub(\n        uint256 a,\n        uint256 b,\n        string memory errorMessage\n    ) internal pure returns (uint256) {\n        unchecked {\n            require(b <= a, errorMessage);\n            return a - b;\n        }\n    }\n\n    /**\n     * @dev Returns the integer division of two unsigned integers, reverting with custom message on\n     * division by zero. The result is rounded towards zero.\n     *\n     * Counterpart to Solidity's `/` operator. Note: this function uses a\n     * `revert` opcode (which leaves remaining gas untouched) while Solidity\n     * uses an invalid opcode to revert (consuming all remaining gas).\n     *\n     * Requirements:\n     *\n     * - The divisor cannot be zero.\n     */\n    function div(\n        uint256 a,\n        uint256 b,\n        string memory errorMessage\n    ) internal pure returns (uint256) {\n        unchecked {\n            require(b > 0, errorMessage);\n            return a / b;\n        }\n    }\n\n    /**\n     * @dev Returns the remainder of dividing two unsigned integers. (unsigned integer modulo),\n     * reverting with custom message when dividing by zero.\n     *\n     * CAUTION: This function is deprecated because it requires allocating memory for the error\n     * message unnecessarily. For custom revert reasons use {tryMod}.\n     *\n     * Counterpart to Solidity's `%` operator. This function uses a `revert`\n     * opcode (which leaves remaining gas untouched) while Solidity uses an\n     * invalid opcode to revert (consuming all remaining gas).\n     *\n     * Requirements:\n     *\n     * - The divisor cannot be zero.\n     */\n    function mod(\n        uint256 a,\n        uint256 b,\n        string memory errorMessage\n    ) internal pure returns (uint256) {\n        unchecked {\n            require(b > 0, errorMessage);\n            return a % b;\n        }\n    }\n}\n\n/*\n  ASSUMPTIONS:\n  ============\n  - Unlimited gas budget\n  - Very basic security patterns implement\n  - ETHPool team has just one account (owner)\n  - ETHPool team account is the contract account creator (owner). For simplicity I don't implement @openzeppelin/contracts/access/AccessControl.sol (best option for this situation)\n  - Rewards for each account are calculated in the moment when the team account deposits\n*/\ncontract ETHPool {\n\n  using SafeMath for uint256;\n\n  address public owner = msg.sender;\n\n  modifier onlyBy(address _account) {\n    require(msg.sender == _account, \"Sender not authorized.\");\n    _;\n  }\n\n\n  uint256 depositsTotal = 0;\n\n  // helper variable to know accounts in the pool as mappings are not iterables\n  address[] private accountsInThePool;\n\n  // We map user addresses to Deposit, this way, each address has a Deposit assigned to them.\n  // mapping (address => uint256) private deposits;\n  mapping (address => Deposit) private deposits;\n\n  // The struct of the Deposit.\n  struct Deposit {\n    bool created;\n    uint256 amount;\n  }\n\n\n  // Emits an event when a new deposit is added, you can use this to update remote deposit lists.\n  event depositAdded(address user, uint256 amount, uint256 total);\n  // Emits an event when a new reward is added, you can use this to update remote reward lists.\n  event rewardAdded(address user, uint256 amount, uint256 total);\n  // Emits an event for account withdrawal\n  event withdrawal(uint256 amount);\n\n  // DEBUGGING\n  // event percentageLog(uint256 amount);\n  // event depositTotalLog(uint256 amount);\n  // event totalLog(uint256 amount);\n\n\n  function changeOwner(address _newOwner) public onlyBy(owner) {\n    owner = _newOwner;\n  }\n\n\n  // Gets the deposits for the used who called the function\n  // function getDeposits() public view returns (Deposit [] memory) {\n  //   return deposits[msg.sender];\n  // }\n\n\n  // function getRewards() public view returns (Deposit [] memory) {\n  //   return deposits[owner];\n  // }\n\n\n  function getDepositsTotal() public view returns (uint256) {\n    return depositsTotal;\n  }\n\n\n  // Adds a deposit to the user's Deposit list who called the function.\n  function addDeposit() public payable {\n\n    // require a not null address.\n    require(address(msg.sender) != address(0), \"Invalid address\");\n    require(owner != msg.sender, \"ETHPool Team cannot deposit\");\n\n    // require a valid amount.\n    require(msg.value > 0, \"Amount value is not valid!\");\n\n\n    if (!deposits[msg.sender].created) {\n      accountsInThePool.push(msg.sender);\n      deposits[msg.sender].created = true;\n      deposits[msg.sender].amount = 0;\n    }\n    deposits[msg.sender].amount = deposits[msg.sender].amount.add(msg.value);\n\n    depositsTotal = depositsTotal.add(msg.value);\n\n    // emits item added event.\n    emit depositAdded(msg.sender, msg.value, deposits[msg.sender].amount);\n  }\n\n\n  function addReward() public onlyBy(owner) payable {\n\n    // require a not null address.\n    require(address(msg.sender) != address(0), \"Invalid address\");\n\n    // require a valid amount.\n    require(msg.value > 0, \"Amount value is not valid!\");\n\n    bool canAddReward = false;\n    uint256 accountLength = accountsInThePool.length;\n    if (accountLength > 0) {\n      for (uint256 i = 0; i < accountLength; i++) {\n        address account = accountsInThePool[i];\n\n        uint256 total = deposits[account].amount;\n        if (total > 0) {\n          canAddReward = true;\n          uint256 percentage = total.mul(100).div(depositsTotal);\n          // emit totalLog(total);\n          // emit depositTotalLog(depositsTotal);\n          // emit percentageLog(percentage);\n          uint256 rewards = msg.value.mul(percentage).div(100);\n          // uint rewards = ((deposits[account].amount * msg.value) / depositsTotal);\n          deposits[account].amount = deposits[account].amount.add(rewards);\n          emit rewardAdded(account, rewards, deposits[account].amount);\n        }\n      }\n    }\n\n    require(canAddReward, \"Cannot add rewards. Will lost fund. Nobody will be able to withdraw it\");\n    depositsTotal = depositsTotal.add(msg.value);\n  }\n\n  function withdraw() external {\n    require(address(msg.sender) != address(0), \"Invalid address\");\n    require(owner != msg.sender, \"ETHPool Team cannot withdraw\");\n\n    require(deposits[msg.sender].amount > 0, \"Nothing to withdraw\");\n    require(getContractBalance() >= deposits[msg.sender].amount, \"Not enougth founds!\"); // very big problem!\n\n    uint256 totalToWithdraw = deposits[msg.sender].amount;\n    deposits[msg.sender].amount = 0;\n    (bool success, ) = msg.sender.call{value:totalToWithdraw}(\"\");\n\n    require(success, \"Withdraw failed\");\n    removeAddressFromThePool(msg.sender); // mantain as small a prossible the accountsInThePool array\n    emit withdrawal(totalToWithdraw);\n  }\n\n\n  function getContractBalance() public view returns (uint256) {\n    return address(this).balance;\n  }\n\n  function getBalance() public view returns (uint256) {\n    return deposits[msg.sender].amount;\n  }\n\n  function removeAddressFromThePool(address account) private {\n    uint256 index;\n    uint256 accountsInThePoolLength = accountsInThePool.length;\n\n    for (uint256 i = 0; i < accountsInThePoolLength; i++) {\n      if (account == accountsInThePool[i]) {\n        index = i;\n        break;\n      }\n    }\n    require(index < accountsInThePoolLength, \"index out of bound\");\n\n    for (uint256 i = index; i < accountsInThePoolLength - 1; i++) {\n      accountsInThePool[i] = accountsInThePool[i + 1];\n    }\n    accountsInThePool.pop();\n  }\n}\n",
  "sourcePath": "/Users/mradosta/Dev/challenge/solidity/contracts/ETHPool.sol",
  "compiler": {
    "name": "solc",
    "version": "0.8.4+commit.c7e474f2.Emscripten.clang"
  },
  "schemaVersion": "3.4.5",
  "updatedAt": "2022-03-07T15:17:54.760Z",
  "networkType": "ethereum",
  "devdoc": {
    "kind": "dev",
    "methods": {},
    "version": 1
  },
  "userdoc": {
    "kind": "user",
    "methods": {},
    "version": 1
  }
}